{
  "_format": "hh-sol-artifact-1",
  "contractName": "Vegetable",
  "sourceName": "contracts/ver/ver.sol",
  "abi": [
    {
      "constant": true,
      "inputs": [],
      "name": "ceoAddress",
      "outputs": [
        {
          "name": "",
          "type": "address"
        }
      ],
      "payable": false,
      "stateMutability": "view",
      "type": "function"
    },
    {
      "constant": true,
      "inputs": [],
      "name": "getMyMiners",
      "outputs": [
        {
          "name": "",
          "type": "uint256"
        }
      ],
      "payable": false,
      "stateMutability": "view",
      "type": "function"
    },
    {
      "constant": true,
      "inputs": [],
      "name": "getBalance",
      "outputs": [
        {
          "name": "",
          "type": "uint256"
        }
      ],
      "payable": false,
      "stateMutability": "view",
      "type": "function"
    },
    {
      "constant": true,
      "inputs": [],
      "name": "initialized",
      "outputs": [
        {
          "name": "",
          "type": "bool"
        }
      ],
      "payable": false,
      "stateMutability": "view",
      "type": "function"
    },
    {
      "constant": true,
      "inputs": [
        {
          "name": "rt",
          "type": "uint256"
        },
        {
          "name": "rs",
          "type": "uint256"
        },
        {
          "name": "bs",
          "type": "uint256"
        }
      ],
      "name": "calculateTrade",
      "outputs": [
        {
          "name": "",
          "type": "uint256"
        }
      ],
      "payable": false,
      "stateMutability": "view",
      "type": "function"
    },
    {
      "constant": true,
      "inputs": [
        {
          "name": "eth",
          "type": "uint256"
        },
        {
          "name": "contractBalance",
          "type": "uint256"
        }
      ],
      "name": "calculateEggBuy",
      "outputs": [
        {
          "name": "",
          "type": "uint256"
        }
      ],
      "payable": false,
      "stateMutability": "view",
      "type": "function"
    },
    {
      "constant": true,
      "inputs": [],
      "name": "marketEggs",
      "outputs": [
        {
          "name": "",
          "type": "uint256"
        }
      ],
      "payable": false,
      "stateMutability": "view",
      "type": "function"
    },
    {
      "constant": false,
      "inputs": [],
      "name": "sellEggs",
      "outputs": [],
      "payable": false,
      "stateMutability": "nonpayable",
      "type": "function"
    },
    {
      "constant": true,
      "inputs": [
        {
          "name": "amount",
          "type": "uint256"
        }
      ],
      "name": "devFee",
      "outputs": [
        {
          "name": "",
          "type": "uint256"
        }
      ],
      "payable": false,
      "stateMutability": "pure",
      "type": "function"
    },
    {
      "constant": false,
      "inputs": [],
      "name": "seedMarket",
      "outputs": [],
      "payable": true,
      "stateMutability": "payable",
      "type": "function"
    },
    {
      "constant": false,
      "inputs": [
        {
          "name": "ref",
          "type": "address"
        }
      ],
      "name": "hatchEggs",
      "outputs": [],
      "payable": false,
      "stateMutability": "nonpayable",
      "type": "function"
    },
    {
      "constant": true,
      "inputs": [],
      "name": "getMyEggs",
      "outputs": [
        {
          "name": "",
          "type": "uint256"
        }
      ],
      "payable": false,
      "stateMutability": "view",
      "type": "function"
    },
    {
      "constant": true,
      "inputs": [
        {
          "name": "",
          "type": "address"
        }
      ],
      "name": "lastHatch",
      "outputs": [
        {
          "name": "",
          "type": "uint256"
        }
      ],
      "payable": false,
      "stateMutability": "view",
      "type": "function"
    },
    {
      "constant": true,
      "inputs": [
        {
          "name": "",
          "type": "address"
        }
      ],
      "name": "claimedEggs",
      "outputs": [
        {
          "name": "",
          "type": "uint256"
        }
      ],
      "payable": false,
      "stateMutability": "view",
      "type": "function"
    },
    {
      "constant": true,
      "inputs": [
        {
          "name": "",
          "type": "address"
        }
      ],
      "name": "hatcheryMiners",
      "outputs": [
        {
          "name": "",
          "type": "uint256"
        }
      ],
      "payable": false,
      "stateMutability": "view",
      "type": "function"
    },
    {
      "constant": true,
      "inputs": [],
      "name": "EGGS_TO_HATCH_1MINERS",
      "outputs": [
        {
          "name": "",
          "type": "uint256"
        }
      ],
      "payable": false,
      "stateMutability": "view",
      "type": "function"
    },
    {
      "constant": true,
      "inputs": [
        {
          "name": "eth",
          "type": "uint256"
        }
      ],
      "name": "calculateEggBuySimple",
      "outputs": [
        {
          "name": "",
          "type": "uint256"
        }
      ],
      "payable": false,
      "stateMutability": "view",
      "type": "function"
    },
    {
      "constant": true,
      "inputs": [
        {
          "name": "eggs",
          "type": "uint256"
        }
      ],
      "name": "calculateEggSell",
      "outputs": [
        {
          "name": "",
          "type": "uint256"
        }
      ],
      "payable": false,
      "stateMutability": "view",
      "type": "function"
    },
    {
      "constant": true,
      "inputs": [
        {
          "name": "",
          "type": "address"
        }
      ],
      "name": "referrals",
      "outputs": [
        {
          "name": "",
          "type": "address"
        }
      ],
      "payable": false,
      "stateMutability": "view",
      "type": "function"
    },
    {
      "constant": true,
      "inputs": [
        {
          "name": "adr",
          "type": "address"
        }
      ],
      "name": "getEggsSinceLastHatch",
      "outputs": [
        {
          "name": "",
          "type": "uint256"
        }
      ],
      "payable": false,
      "stateMutability": "view",
      "type": "function"
    },
    {
      "constant": false,
      "inputs": [
        {
          "name": "ref",
          "type": "address"
        }
      ],
      "name": "buyEggs",
      "outputs": [],
      "payable": true,
      "stateMutability": "payable",
      "type": "function"
    },
    {
      "inputs": [],
      "payable": false,
      "stateMutability": "nonpayable",
      "type": "constructor"
    }
  ],
  "bytecode": "{0x6080604052620d2f006000556127106001556113886002556003805460ff1916905534801561002d57600080fd5b506003805461010060a860020a03191633610100021790556109ab806100546000396000f30060806040526004361061011c5763ffffffff7c01000000000000000000000000000000000000000000000000000000006000350416630a0f816881146101215780630a76e5ed1461015257806312065fe014610179578063158ef93e1461018e578063229824c4146101b757806326fd8422146101d55780632e9392bb146101f05780633955f0fe146102055780633bc0461a1461021c5780633c5f07cb146102345780633ec862a81461023c57806343ce74221461025d578063467ece7914610272578063726703611461029357806379532aa9146102b45780637cdebc21146102d55780637e56fde5146102ea5780638e316327146103025780639ca423b31461031a578063d7c8843b1461033b578063db6638651461035c575b600080fd5b34801561012d57600080fd5b50610136610370565b60408051600160a060020a039092168252519081900360200190f35b34801561015e57600080fd5b50610167610384565b60408051918252519081900360200190f35b34801561018557600080fd5b50610167610397565b34801561019a57600080fd5b506101a361039c565b604080519115158252519081900360200190f35b3480156101c357600080fd5b506101676004356024356044356103a5565b3480156101e157600080fd5b506101676004356024356103f2565b3480156101fc57600080fd5b50610167610408565b34801561021157600080fd5b5061021a61040e565b005b34801561022857600080fd5b506101676004356104f1565b61021a61050e565b34801561024857600080fd5b5061021a600160a060020a03600435166105b1565b34801561026957600080fd5b50610167610740565b34801561027e57600080fd5b50610167600160a060020a0360043516610765565b34801561029f57600080fd5b50610167600160a060020a0360043516610777565b3480156102c057600080fd5b50610167600160a060020a0360043516610789565b3480156102e157600080fd5b5061016761079b565b3480156102f657600080fd5b506101676004356107a1565b34801561030e57600080fd5b506101676004356107ae565b34801561032657600080fd5b50610136600160a060020a03600435166107c7565b34801561034757600080fd5b50610167600160a060020a03600435166107e2565b61021a600160a060020a0360043516610839565b6003546101009004600160a060020a031681565b3360009081526004602052604090205490565b303190565b60035460ff1681565b60006103ea6103b6600154846108fb565b6103e56002546103da6103df6103ce6001548a6108fb565b6103da6002548c6108fb565b610931565b89610940565b610940565b949350505050565b600061040183836008546103a5565b9392505050565b60085481565b6003546000908190819060ff16151561042657600080fd5b61042e610740565b9250610439836107ae565b9150610444826104f1565b336000908152600560209081526040808320839055600690915290204290556008549091506104739084610931565b600855600354604051610100909104600160a060020a0316906108fc8315029083906000818181858888f193505050501580156104b4573d6000803e3d6000fd5b50336108fc6104c38484610957565b6040518115909202916000818181858888f193505050501580156104eb573d6000803e3d6000fd5b50505050565b60006105086105018360146108fb565b6064610940565b92915050565b6003546101009004600160a060020a0316331461058c57604080517f08c379a000000000000000000000000000000000000000000000000000000000815260206004820152600c60248201527f696e76616c69642063616c6c0000000000000000000000000000000000000000604482015290519081900360640190fd5b6008541561059957600080fd5b6003805460ff1916600117905564141dd76000600855565b600354600090819060ff1615156105c757600080fd5b600160a060020a0383163314806105e55750600160a060020a038316155b806106065750600160a060020a038316600090815260046020526040902054155b1561061f576003546101009004600160a060020a031692505b33600090815260076020526040902054600160a060020a0316151561067457336000908152600760205260409020805473ffffffffffffffffffffffffffffffffffffffff1916600160a060020a0385161790555b61067c610740565b915061068a82600054610940565b336000908152600460205260409020549091506106a79082610931565b336000908152600460209081526040808320939093556005808252838320839055600682528383204290556007825283832054600160a060020a03168352905220546106fb906103da61050185600d6108fb565b33600090815260076020908152604080832054600160a060020a0316835260059182905290912091909155600854610738916103da908590610940565b600855505050565b33600081815260056020526040812054909161076091906103da906107e2565b905090565b60066020526000908152604090205481565b60056020526000908152604090205481565b60046020526000908152604090205481565b60005481565b60006105088230316103f2565b60006105088260085430600160a060020a0316316103a5565b600760205260009081526040902054600160a060020a031681565b60008054600160a060020a03831682526006602052604082205482916108129161080d904290610957565b610969565b600160a060020a0384166000908152600460205260409020549091506104019082906108fb565b600354600090819060ff16151561084f57600080fd5b6108633461085e303182610957565b6103f2565b915061087782610872846104f1565b610957565b9150610882346104f1565b6003546040519192506101009004600160a060020a0316906108fc8315029083906000818181858888f193505050501580156108c2573d6000803e3d6000fd5b50336000908152600560205260409020546108dd9083610931565b336000908152600560205260409020556108f6836105b1565b505050565b60008083151561090e576000915061092a565b5082820282848281151561091e57fe5b041461092657fe5b8091505b5092915050565b60008282018381101561092657fe5b600080828481151561094e57fe5b04949350505050565b60008282111561096357fe5b50900390565b60008183106109785781610401565b50909190505600a165627a7a72305820d3c2694a97b954c496e0d60cb0ec331c6aa35da158f9932182d755c88899d4f40029}",
  "deployedBytecode": "0x6080604052620d2f006000556127106001556113886002556003805460ff1916905534801561002d57600080fd5b506003805461010060a860020a03191633610100021790556109ab806100546000396000f30060806040526004361061011c5763ffffffff7c01000000000000000000000000000000000000000000000000000000006000350416630a0f816881146101215780630a76e5ed1461015257806312065fe014610179578063158ef93e1461018e578063229824c4146101b757806326fd8422146101d55780632e9392bb146101f05780633955f0fe146102055780633bc0461a1461021c5780633c5f07cb146102345780633ec862a81461023c57806343ce74221461025d578063467ece7914610272578063726703611461029357806379532aa9146102b45780637cdebc21146102d55780637e56fde5146102ea5780638e316327146103025780639ca423b31461031a578063d7c8843b1461033b578063db6638651461035c575b600080fd5b34801561012d57600080fd5b50610136610370565b60408051600160a060020a039092168252519081900360200190f35b34801561015e57600080fd5b50610167610384565b60408051918252519081900360200190f35b34801561018557600080fd5b50610167610397565b34801561019a57600080fd5b506101a361039c565b604080519115158252519081900360200190f35b3480156101c357600080fd5b506101676004356024356044356103a5565b3480156101e157600080fd5b506101676004356024356103f2565b3480156101fc57600080fd5b50610167610408565b34801561021157600080fd5b5061021a61040e565b005b34801561022857600080fd5b506101676004356104f1565b61021a61050e565b34801561024857600080fd5b5061021a600160a060020a03600435166105b1565b34801561026957600080fd5b50610167610740565b34801561027e57600080fd5b50610167600160a060020a0360043516610765565b34801561029f57600080fd5b50610167600160a060020a0360043516610777565b3480156102c057600080fd5b50610167600160a060020a0360043516610789565b3480156102e157600080fd5b5061016761079b565b3480156102f657600080fd5b506101676004356107a1565b34801561030e57600080fd5b506101676004356107ae565b34801561032657600080fd5b50610136600160a060020a03600435166107c7565b34801561034757600080fd5b50610167600160a060020a03600435166107e2565b61021a600160a060020a0360043516610839565b6003546101009004600160a060020a031681565b3360009081526004602052604090205490565b303190565b60035460ff1681565b60006103ea6103b6600154846108fb565b6103e56002546103da6103df6103ce6001548a6108fb565b6103da6002548c6108fb565b610931565b89610940565b610940565b949350505050565b600061040183836008546103a5565b9392505050565b60085481565b6003546000908190819060ff16151561042657600080fd5b61042e610740565b9250610439836107ae565b9150610444826104f1565b336000908152600560209081526040808320839055600690915290204290556008549091506104739084610931565b600855600354604051610100909104600160a060020a0316906108fc8315029083906000818181858888f193505050501580156104b4573d6000803e3d6000fd5b50336108fc6104c38484610957565b6040518115909202916000818181858888f193505050501580156104eb573d6000803e3d6000fd5b50505050565b60006105086105018360146108fb565b6064610940565b92915050565b6003546101009004600160a060020a0316331461058c57604080517f08c379a000000000000000000000000000000000000000000000000000000000815260206004820152600c60248201527f696e76616c69642063616c6c0000000000000000000000000000000000000000604482015290519081900360640190fd5b6008541561059957600080fd5b6003805460ff1916600117905564141dd76000600855565b600354600090819060ff1615156105c757600080fd5b600160a060020a0383163314806105e55750600160a060020a038316155b806106065750600160a060020a038316600090815260046020526040902054155b1561061f576003546101009004600160a060020a031692505b33600090815260076020526040902054600160a060020a0316151561067457336000908152600760205260409020805473ffffffffffffffffffffffffffffffffffffffff1916600160a060020a0385161790555b61067c610740565b915061068a82600054610940565b336000908152600460205260409020549091506106a79082610931565b336000908152600460209081526040808320939093556005808252838320839055600682528383204290556007825283832054600160a060020a03168352905220546106fb906103da61050185600d6108fb565b33600090815260076020908152604080832054600160a060020a0316835260059182905290912091909155600854610738916103da908590610940565b600855505050565b33600081815260056020526040812054909161076091906103da906107e2565b905090565b60066020526000908152604090205481565b60056020526000908152604090205481565b60046020526000908152604090205481565b60005481565b60006105088230316103f2565b60006105088260085430600160a060020a0316316103a5565b600760205260009081526040902054600160a060020a031681565b60008054600160a060020a03831682526006602052604082205482916108129161080d904290610957565b610969565b600160a060020a0384166000908152600460205260409020549091506104019082906108fb565b600354600090819060ff16151561084f57600080fd5b6108633461085e303182610957565b6103f2565b915061087782610872846104f1565b610957565b9150610882346104f1565b6003546040519192506101009004600160a060020a0316906108fc8315029083906000818181858888f193505050501580156108c2573d6000803e3d6000fd5b50336000908152600560205260409020546108dd9083610931565b336000908152600560205260409020556108f6836105b1565b505050565b60008083151561090e576000915061092a565b5082820282848281151561091e57fe5b041461092657fe5b8091505b5092915050565b60008282018381101561092657fe5b600080828481151561094e57fe5b04949350505050565b60008282111561096357fe5b50900390565b60008183106109785781610401565b50909190505600a165627a7a72305820d3c2694a97b954c496e0d60cb0ec331c6aa35da158f9932182d755c88899d4f40029",
  "linkReferences": {},
  "deployedLinkReferences": {}
}